:100000000C94FB050C9442060C9442060C94420698
:100010000C9442060C9442060C9442060C94420640
:100020000C9442060C9442060C94D91F0C94AD20FB
:100030000C944D170C9442060C9442060C94420604
:100040000C9442060C9442060C9442060C94420610
:100050000C9442060C94B3170C9442060C9442067E
:100060000C9442060C9442060C9442060C944206F0
:100070000C9442060C9442060C9442060C944206E0
:100080000C9442060C9442060C9442060C944206D0
:100090000C9442060C9442060C9442060C944206C0
:1000A0000C9442060C9442060C94420629001E0051
:1000B0001F0020002100220023002400250026002C
:1000C00027002D002E002A003A002B0014001A00F1
:1000D0000800150017001C0018000C001200130087
:1000E0002F00300031003B003900040016000700EB
:1000F00009000A000B000D000E000F003300340051
:10010000000028003C00E10035001D001B00060037
:100110001900050011001000360037003800E50016
:1001200000003D00E000E200E300000000000000ED
:100130002C00000000000000E700E6007600E4006C
:100140003E00010059005A005B005C005D005E004B
:100150005F00600061006200560057004C003F00E5
:1001600001004B0052004A000100010001000100A3
:100170000100010001000100010001004000010038
:10018000500051004F00010001000100010001007A
:1001900001000100010000005800410001000100C1
:1001A0004E0001004D0001000100010001000100AE
:1001B0006300540001000000420001000100010042
:1001C000000000000000010000000000000001002D
:1001D00001000100010043000100010001000100D5
:1001E0000100010001000100010001000100010007
:1001F00001000100010001000100010001000100F7
:1002000001000100010001000100010001000100E6
:1002100001000100010001000100010001000100D6
:1002200001000100010001000100010000000100C7
:1002300001000100010001000100010001000100B6
:1002400001000100010001000100010000000100A7
:10025000010001000100000000000000010000009A
:100260000000000001000100010001000100010088
:100270000100010001000100010001000100010076
:100280000100010001000100010001000100010066
:100290000100010001000100010001000100010056
:1002A0000100010001000100010001000100010046
:1002B0000100010001000100010001000100010036
:1002C0000100000001000100010001000100010027
:1002D0000100010001000100010001000100010016
:1002E0000100000001000100010001000000000009
:1002F00000000100000000000000010001000100FA
:1003000001000100010001000100010001000100E5
:1003100001000100010001000100010001000100D5
:1003200001000100010001000100010001000100C5
:1003300001000100010001000100010001000100B5
:1003400001000100010001000100010001000100A5
:100350000100010001000100000001000100010096
:100360000100010001000100010001000100010085
:100370000100010001000100000001000100010076
:10038000010000000000000001000000000000006B
:100390000100010001000100010001000100010055
:1003A0000100010001000100010001000100010045
:1003B0000100010001000100010001000100010035
:1003C0000100010001000100010001000100010025
:1003D0000100010001000100010001000100010015
:1003E0000100010001000100010001000100000006
:1003F00001000100010001000100010001000100F5
:1004000001000100010001000100010001000000E5
:1004100001000100010001000000000000000100D7
:1004200000000000000001000100010001000100C7
:1004300001000100010001000100010001000100B4
:1004400001000100010001000100010001000100A4
:100450000100010001000100010001000100010094
:100460000100010001000100010001000100010084
:100470000100010001000100010001000100010074
:100480000100010000000100010001000100010065
:100490000100010001000100010001000100010054
:1004A0000100010000000100010001000100000046
:1004B0000000000001000000000000000100010039
:1004C0000100010001000100010001000100010024
:1004D0000100010001000100010001000100010014
:1004E0000100010001000100010001000100010004
:1004F00001000100010001000100010001000100F4
:1005000001000100010001000100010001000100E3
:1005100001000100010001000100000001000100D4
:1005200001000100010001000100010001000100C3
:1005300001000100010001000100000001000100B4
:1005400001000100000000000000010000000000A8
:100550000000010001000100010001000100010094
:100560000100010001000100010001000100010083
:100570000100010001000100010001000100010073
:100580000100010001000100010001000100010063
:100590000100010001000100010001000100010053
:1005A0000100010001000100010001000100010043
:1005B0000000010001000100010001000100010034
:1005C0000100010001000100010001000100010023
:1005D0000000010001000100010000000000000017
:1005E0000100000000000000010001000100010006
:1005F00001000100010001000100010001000100F3
:1006000001000100010001000100010001000100E2
:1006100001000100010001000100010001000100D2
:1006200001000100010001000100010001000100C2
:1006300001000100010001000100010001000100B2
:1006400001000100010000000100010001000100A3
:100650000100010001000100010001000100010092
:100660000100010001000000010001000100010083
:100670000000000000000100000000000000010078
:100680000100010001000100010001000100010062
:100690000100010001000100010001000100010052
:1006A0000100010001000100010001000100010042
:1006B0000100010001000100010001000100010032
:1006C0000100010001000100010001000100010022
:1006D0000100010001000100010001000000010013
:1006E0000100010001000100010001000100010002
:1006F00001000100010001000100010000000100F3
:1007000001000100010000000000000001000000E5
:1007100000000000010001000100010001000100D3
:1007200001000100010001000100010001000100C1
:1007300001000100010001000100010001000100B1
:1007400001000100010001000100010001000100A1
:100750000100010001000100010001000100010091
:100760000100010001000100010001000100010081
:100770000100000001000100010001000100010072
:100780000100010001000100010001000100010061
:100790000100000001000100010001000000000054
:1007A0000000010000000000000001000100010045
:1007B0000100010001000100010001000100010031
:1007C0000100010001000100010001000100010021
:1007D0000100010001000100010001000100010011
:1007E0000100010001000100010001000100010001
:1007F00001000100010001000100010001000100F1
:1008000001000100010001000000010001000100E1
:1008100001000100010001000100010001000100D0
:1008200001000100010001000000010001000100C1
:1008300001000000000000000100000000000000B6
:1008400001000100010001000100010001000100A0
:100850000100010001000100010001000100010090
:100860000100010001000100010001000100010080
:100870000100010001000100010001000100010070
:100880000100010001000100010001000100010060
:100890000100010001000100010001000100000051
:1008A0000100010001000100010001000100010040
:1008B0000100010001000100010001000100000031
:1008C0000100010001000100000000000000010023
:1008D0000000000000000100010001000100010013
:1008E0000100010001000100010001000100010000
:1008F00001000100010001000100010001000100F0
:1009000001000100010001000100010001000100DF
:1009100001000100010001000100010001000100CF
:1009200001000100010001000100010001000100BF
:1009300001000100000001000100010001000100B0
:10094000010001000100010001000100010001009F
:100950000100010000000100010001000100000091
:100960000000000001000000000000000100010084
:10097000010001000100010001000100010001006F
:10098000010001000100010001000100010001005F
:10099000010001000100010001000100010001004F
:1009A000010001000100010001000100010001003F
:1009B000010001000100010001000100010001002F
:1009C0000100010001000100010000000100010020
:1009D000010001000100010001000100010001000F
:1009E0000100010001000100010000000100010000
:1009F00001000100000000000000010000000000F4
:100A00000000010001000100010001002C03720040
:100A10006F00730063006F005F006D0036003800E8
:100A20006B00AE0020004B006500790062006F0093
:100A300061007200640000003C035400680065001F
:100A400020005200650061006C006C0079002000FD
:100A50004F006C0064002D005300630068006F00BD
:100A60006F006C00200043006F002E0020004C003F
:100A70007400640000000403090409026D0004010D
:100A800000A0FA090400000103010100092111017D
:100A900000012240000705810308000A0904010043
:100AA0000103010200092111010001224D00070587
:100AB000820308000A090402000103000000092162
:100AC000110100012236000705830308000A09040A
:100AD0000300010300000009211101000122390077
:100AE000070584032000011201100100000008D84E
:100AF00004ECE501000102000105010906A1010560
:100B00000719E029E71500250195087501810205FF
:100B10000819012905950575019102950175039143
:100B2000010507190029F71500250195F8750181C0
:100B300002C005010980A1018502160100260300FB
:100B40001A81002A8300751095018100C0050C09E7
:100B500001A1018503160100269C021A01002A9CAE
:100B600002751095018100C005010902A10109016A
:100B7000A100050919012905150025019505750133
:100B80008102950175038101050109300931158143
:100B9000257F95027508810609381581257F950105
:100BA00075088106050C0A38021581257F950175A7
:100BB000088106C0C005010906A101050719E02941
:100BC000E7150025019508750181029501750881D9
:100BD0000105081901290595057501910295017511
:100BE0000391010507190029FF150026FF0095064E
:100BF00075088100C00011241FBECFEFDAE0DEBF10
:100C0000CDBF04B603FE27C080914E0290914F02E3
:100C1000A0915002B09151028730904BA740B04B49
:100C2000D1F410924E0210924F0210925002109284
:100C3000510214BE84B7877F84BF0FB6F894A8957D
:100C400080916000886180936000109260000FBE08
:100C5000E0E0F8E3099511E0A0E0B1E0EAE7F8E4AC
:100C600002C005900D92AC33B107D9F722E0ACE396
:100C7000B1E001C01D92AE34B207E1F70E94261D1B
:100C80000C94EC230C94000090E080E0089508950B
:100C90000895CF93C1E08637910541F4FB01C281ED
:100CA00081E0CC2331F00E942014C0E08C2FCF9142
:100CB00008950E944114FACF81FF03C0579A5F98AC
:100CC00008955798FCCF81E008950C9449060E943E
:100CD00000102FEF84E39CE0215080409040E1F72A
:100CE00000C000000C94D617FF920F931F93CF9370
:100CF000DF938C01FC01C081D1818091760181114B
:100D00003FC082818823B9F1CE010E943015F82EB0
:100D1000682FCE010E94DC14BE018F2D0E94A9070E
:100D2000EC01B8010E946506882309F44AC0B801A5
:100D3000CE010E94B509882309F443C0C531F0E70C
:100D4000DF0718F5C23080E7D80708F04BC0C1159F
:100D5000E0E7DE0789F1C130D047D1F181E080932F
:100D60003E0180933F01C801DF91CF911F910F9108
:100D7000FF900C946306CE010E940815F82ECCCF8C
:100D8000CE010E943015BE01C9CFCC3380E7D80711
:100D900009F49AC0CD33D04709F7F801828188233E
:100DA00009F4B9C010923F010E947D1790933D0154
:100DB00080933C0180E295C0F801828181110E94FC
:100DC000670680E0DF91CF911F910F91FF9008950A
:100DD000F80182818823A9F380910E0281608093BB
:100DE0000E02EFCFF8018281882309F4BCCF0E9464
:100DF000DE16811102C00E94C4160E94FB1690E00C
:100E00009093400280933F02FE01E350F0478091AF
:100E10003F028160E231F10538F4E251FC4D0C945F
:100E20009C2380913F02826080933F0280913F0229
:100E30000E94FF160E940010C4CF80913F02846080
:100E4000F3CF80913F028860EFCF80913F028061B5
:100E5000EBCF80913F028062E7CF80913F028064B8
:100E6000E3CF80913F028068DFCF80913F028C60AA
:100E7000DBCF80913F028E7FD7CF80913F028D7F65
:100E8000D3CF80913F028B7FCFCF80913F02877F6E
:100E9000CBCF80913F028F7EC7CF80913F028F7D65
:100EA000C3CF80913F028F7BBFCF80913F028F776E
:100EB000BBCF80913F02837FB7CF90913F02892FB4
:100EC00097FB87F98058B0CFF8018281882361F0C1
:100ED00010923E010E947D1790933D0180933C014A
:100EE00082E00E94B60D6DCF80913E0181110FC04E
:100EF00080913C0190913D010E948917883C9105A9
:100F000030F486E20E948B0C86E20E94670D82E03C
:100F10000E94BD0D56CF80913F0181110FC080917D
:100F20003C0190913D010E948917883C910530F465
:100F300087E20E948B0C87E20E94670D80E2E8CF77
:100F40000C94040A0C94060A0C945C060C94A407F6
:100F50000895972F70E02FE0929F600D711D11246E
:100F6000FB019BE4899FE00DF11D1124EE0FFF1F93
:100F7000E455FF4F859194910895FC01EE0FFF1FFA
:100F8000E45FF54F8591949108950E94A9070E940E
:100F90003909811520E4920708F08FC0811540E3DC
:100FA000940708F0ECC0803E910508F073C0803CC7
:100FB000910508F0D0C0883A910590F4853A9105E2
:100FC00008F0CEC08130910509F470C0009709F493
:100FD0006DC08430910508F069C090E080E008950C
:100FE0008D3B9105D0F7883A910509F403C1893A00
:100FF000910509F402C18A3A910509F401C18B3ABD
:10100000910509F400C18C3A910509F4FFC08B3BAE
:10101000910509F4FEC08C3B910509F4FDC08D3AA1
:10102000910509F4FCC0803B910509F4FBC08E3AA0
:10103000910509F4FAC08F3A910509F4F9C0813B92
:10104000910509F4F8C0823B910509F4F7C0833B90
:10105000910509F4F6C0843B910509F4F5C0853B80
:10106000910509F4F4C0863B910509F4F3C0873B70
:10107000910509F4F2C0883B910509F4F1C0893B60
:10108000910509F4F0C08A3B910509F4EFC080E0B6
:1010900094E408958F3F910509F048F4803F91054D
:1010A00008F069C0883E910508F097CF0895811532
:1010B00060E2960708F061C00895811573E597070F
:1010C00070F5811522E5920708F064C0811541E5AD
:1010D000940708F05AC0811560E5960708F452C0DD
:1010E0009C0154E0369527955A95E1F7922F93701D
:1010F000282F26952695237070E2279F90011124B2
:10110000392B837041E050E0BA0102C0660F771FAF
:101110008A95E2F7CB01822B932B9C680895811569
:1011200075E5970750F4811524E5920708F443C04C
:10113000982F8827846F906A0895811546E5940753
:1011400008F44DC09C0130569F702115304108F0C5
:1011500044CF90620895805C91090E94BD07089574
:10116000853A910509F440C0863A910509F03FC0DF
:1011700082E890E40895906508959F70EECF9927D6
:10118000906C08959F70906A0895982F8827816FBA
:10119000906A0895AC014370552721E030E002C009
:1011A000220F331F4A95E2F78695869570E2879F56
:1011B000C0011124B0CFAC014370552721E030E0CD
:1011C00002C0220F331F4A95E2F78695869540E2CA
:1011D000849FC0011124822B932B9A680895982F25
:1011E000882788279F71B5CF81E890E4089583E828
:1011F00090E4089582EE94E4089589EE94E40895CD
:101200008AEE94E4089585EB94E4089586EB94E4E3
:10121000089583EB94E4089584EB94E4089587EBB8
:1012200094E408958CEC94E408958DEC94E408958E
:1012300083E895E408958AE895E4089582E995E4C1
:10124000089584E995E4089581E296E4089583E29F
:1012500096E4089584E296E4089585E296E408957C
:1012600086E296E4089587E296E408958AE296E499
:101270001DCF8238910549F1B0F48133910509F40D
:1012800062C048F48932910509F456C08A3291054A
:1012900009F460C008958533910509F446C0893387
:1012A000910599F00895833E910531F138F4803E1F
:1012B000910591F0823E9105B1F00895863E910529
:1012C00021F1873E910551F1089520913F0223704D
:1012D000D9F080EE90E0089520913F0220FF14C0E5
:1012E00089E390E0089520913F0222FF0DC024FD84
:1012F00009C083EE90E0089520913F0222FD31C0A5
:1013000024FF02C090E080E0089520913F0223FF77
:10131000FBCF24FDF7CF87EE90E0089520913F02A8
:1013200023FFEECF86EE90E0089520913F0225FF47
:10133000EBCF89E290E0089520913F0225FFE4CFB2
:1013400085E390E0089520913F0226FFDDCF8AE2F9
:1013500090E0089520913F0226FFD6CF81E390E0F0
:10136000089582EE90E0089508950F931F93CF9310
:101370008C01FB018281811106C0C1E08C2FCF91CD
:101380001F910F910895C0914D01C11125C00531E4
:10139000104799F70E94B40981E080934D010E94A3
:1013A0007D1790934C0180934B0110924001109255
:1013B0004201109241011092440110924301109297
:1013C0004601109245011092480110924701109277
:1013D0004A0110924901D2CF80914B0190914C016A
:1013E0000E948917883C910540F680914001E82FC2
:1013F000F0E0EE0FFF1FEF5BFE4F118300838F5F66
:1014000080934001C0E0BACF0C9447060C94480684
:10141000CF93DF9385B7806885BF85B7806885BF28
:10142000A2E2B1E047E251E0C1E0D0E08D91E82FC7
:10143000E295EF70F0E061A18F709E0101C0220F74
:101440008A95EAF7922F9095962391A382A1822BF9
:1014500082A34A175B0751F7A3E1B1E061E070E0B6
:101460008D91E82FE295EF70F0E041A18F709B0124
:1014700001C0220F8A95EAF7922F9095942391A3A9
:1014800082A1822B82A381E0A232B80749F7109291
:1014900059011092580110924F0110924E01109272
:1014A0005B0110925A01109251011092500110925A
:1014B0005D0110925C011092530110925201109242
:1014C0005F0110925E01109255011092540110922A
:1014D0006101109260011092570110925601DF9144
:1014E000CF910C94A0074F925F927F928F929F9220
:1014F000AF92BF92CF92DF92EF92FF920F931F9322
:10150000CF93DF939EE4492E91E0592E22E2E22E02
:1015100021E0F22E01E010E099249394E201A990D9
:10152000B9902E01DE011E921E92F70181917F017A
:10153000E82FE295EF70F0E091A18F70980101C063
:10154000220F8A95EAF7892F822B81A382A1822E0E
:101550008094882182A380EA8A95F1F783E1C82EDE
:1015600081E0D82E90E080E0E60179916E01472F6E
:1015700042954F7050E0EA0178A04D915C9111972F
:101580007F70E80102C0CC0FDD1F7A95E2F7BE0143
:10159000672109F072C0B801082E02C0660F771FDC
:1015A0000A94E2F7462B572B11965C934E930196C3
:1015B0008F309105C9F681A1882281A282A1282BB2
:1015C00022A38D919C91A816B90641F090926201D8
:1015D0000E947D179093640180936301D8E54D16B6
:1015E000D1E05D0609F09ACF80916201882391F1E4
:1015F00080916301909164010E948917069750F1D0
:1016000080914E0190914F01909359018093580120
:10161000809150019091510190935B0180935A0108
:10162000809152019091530190935D0180935C01F0
:10163000809154019091550190935F0180935E01D8
:1016400080915601909157019093610180936001C0
:10165000109262010E94A20781E0DF91CF911F9159
:101660000F91FF90EF90DF90CF90BF90AF909F9041
:101670008F907F905F904F90089570E060E092CFE0
:10168000E82FF0E0EE0FFF1FE85AFE4F80819181B6
:101690000895089590936A01809369010895E091F7
:1016A0006901F0916A01309721F00190F081E02DFD
:1016B000099480E00895E0916901F0916A01309702
:1016C00021F00280F381E02D09940895E0916901F1
:1016D000F0916A01309721F00480F581E02D0994A2
:1016E000089520916701309168012817390771F03A
:1016F0009093680180936701E0916901F0916A011C
:10170000309721F00680F781E02D0994089520910B
:101710006501309166012817390771F090936601D1
:1017200080936501E0916901F0916A01309721F0A1
:101730000084F185E02D0994089508950C949D0B83
:101740000E9474170E94080A0E944318EFE3F2E017
:1017500080818068808308957F928F929F92AF925C
:10176000BF92CF92DF92EF92FF920F931F93CF938E
:10177000DF93CDB7DEB72A970FB6F894DEBF0FBE62
:10178000CDBF0E94730A9CE6A92E91E0B92E10E00D
:1017900000E088248394912C702E802F0E94400BAF
:1017A0007C01F501C190D1905F01C816D90609F4FA
:1017B0005DC080910E0281FD0E94490B96012E258D
:1017C0003F2590E080E06401082E02C0CC0CDD1CB7
:1017D0000A94E2F7A60142235323452B09F441C0A2
:1017E0008E837F82EC20FD2081E0EF2809F480E0E9
:1017F00088870E947D178160782F9A8789874E811C
:101800005F8168858A850E94610C000F111FF801B5
:10181000E459FE4F80819181C826D926D182C082A9
:101820000E94C11A0E944F0B90916B018917A9F178
:101830000E944F0B80936B012A960FB6F894DEBF7F
:101840000FBECDBFDF91CF911F910F91FF90EF9011
:10185000DF90CF90BF90AF909F908F907F900C942F
:10186000A60701968F30910509F0ADCF0F5F1F4F8E
:101870000530110509F090CF8FEF89838A831B8291
:101880000E947D178160782F9D838C8349815A81C6
:101890006B818D810E94610CC3CF2A960FB6F8949C
:1018A000DEBF0FBECDBFDF91CF911F910F91FF9093
:1018B000EF90DF90CF90BF90AF909F908F907F90F0
:1018C0000895CF93DF93CDB7DEB72B970FB6F8947B
:1018D000DEBF0FBECDBF4F83588769877A878B875E
:1018E0001E821D8285E0FE013796DE011196019071
:1018F0000D928A95E1F749815A816B817C818D81B6
:101900009E812B960FB6F894DEBF0FBECDBFDF9140
:10191000CF910C949012882309F4D8C0823871F4C6
:101920000E944F0B81FDD2C089E30E94D0150E9416
:10193000951689E30E940D160C949516833859F478
:101940000E944F0B80FDC2C083E50E94D0150E940B
:10195000951683E5EFCF843859F40E944F0B82FD32
:10196000B5C087E40E94D0150E94951687E4E2CFA7
:101970009CEF980F913A18F40E94D015DDCF90E2B9
:10198000980F983050F4877091E001C0990F8A95B4
:10199000EAF7892F0E944F16CFCF9BE5980F93301F
:1019A00070F4853A31F0863A39F083E890E00C948F
:1019B000710B81E890E0FBCF82E890E0F8CF98E5EA
:1019C000980F953108F082C0883A09F440C0893AEE
:1019D00009F440C08A3A09F440C08B3A09F440C087
:1019E0008C3A09F440C08B3B09F440C08C3B09F4AD
:1019F00040C08D3A09F440C0803B09F440C08E3AA3
:101A000009F440C08F3A09F440C0813B09F440C05A
:101A1000823B09F440C0833B09F440C0843B09F495
:101A200040C0853B09F440C0863B09F440C0873B79
:101A300009F440C0883B09F440C0893B09F440C028
:101A40008A3B09F440C090E080E00C94870B82EE62
:101A500090E0FBCF89EE90E0F8CF8AEE90E0F5CFF2
:101A600085EB90E0F2CF86EB90E0EFCF83EB90E058
:101A7000ECCF84EB90E0E9CF87EB90E0E6CF8CEC05
:101A800090E0E3CF8DEC90E0E0CF83E891E0DDCF14
:101A90008AE891E0DACF82E991E0D7CF84E991E05A
:101AA000D4CF81E292E0D1CF83E292E0CECF84E244
:101AB00092E0CBCF85E292E0C8CF86E292E0C5CF3C
:101AC00087E292E0C2CF8AE292E0BFCF08958823F6
:101AD00009F44BC0823871F40E944F0B81FF45C05E
:101AE00089E30E94D0150E94951689E30E940D1685
:101AF0000C949516833859F40E944F0B80FF35C023
:101B000083E50E94D0150E94951683E5EFCF8438B7
:101B100059F40E944F0B82FF28C087E40E94D01521
:101B20000E94951687E4E2CF9CEF980F913AF0F26D
:101B300090E2980F983050F4877091E001C0990FAF
:101B40008A95EAF7892F0E945516D2CF9BE5980F08
:101B5000933020F490E080E00C94710B885A85312A
:101B600020F490E080E00C94870B0895882321F006
:101B70000E944F160C9495160895882321F00E9418
:101B800055160C94951608958F929F92AF92BF921E
:101B9000DF92EF92FF920F931F93CF93DF937C011D
:101BA000D62FC72FFC01058102950F7012811111EC
:101BB0000E946C160E94C915D82E882371F011233B
:101BC000A1F080E28D0F883080F082E00E94B31592
:101BD0000E94C91591E0D82ED926EC2FE295EF701E
:101BE000F0E0E050FC4D0C949C23D12CF6CF0C2F50
:101BF0000F70C07F11F00295007F1123A9F0002320
:101C000059F080E28D0F883010F0D11109C0802F7B
:101C10000E944F160E9495168D2F0E948B0C14C0A7
:101C2000802F0E945F16F6CF8D2F0E94670D002334
:101C300059F080E28D0F883010F0D11124C0802F30
:101C40000E9455160E949516DD2009F48FC10E944E
:101C5000A61580FD8BC1F70112820E94A0150E947B
:101C60002014C7010E94C20F0E94A015DF91CF91DE
:101C70001F910F91FF90EF90DF90BF90AF909F90DA
:101C80008F900C944114802F0E946516DBCFFC2F9F
:101C9000FF70BF2EC07FC03219F0B29480EFB8221F
:101CA000DD2369F0D13029F1112369F1002359F0C6
:101CB000F701858180FFB0CF8F70858304C0112329
:101CC00061F0011104C08B2D0E94B60DBDCF8B2D8C
:101CD0000130D1F70E947F16B7CF011106C00E94D4
:101CE00082168B2D0E94BD0DAFCF013009F4ACCF11
:101CF000F6CF112321F0063008F0A6CFE4CF05304F
:101D000008F0A2CFEECF002361F38D2F0E94670D64
:101D10009BCF8C2F86958695837069F0813009F072
:101D200093CF8D2F9C2F9370111102C090E080E013
:101D30000E94870B89CF8D2F9C2F9370111102C0A9
:101D400090E080E00E94710B7FCF8D2F112329F04E
:101D50000E94CF190E94B61A77CF0E94371AFACF85
:101D60008C2F837009F047C011116ECF2D2F229553
:101D700026952770220F220F6D2F6F70862E912CC3
:101D8000B12CA12C022E04C0880C991CAA1CBB1CCF
:101D90000A94D2F760E070E0CB01D4FF0FC06FE08F
:101DA00070E080E090E004C0660F771F881F991FE5
:101DB0002A95D2F76095709580959095C695C695B1
:101DC000C370C23051F080F4682979298A299B298F
:101DD000C13071F00E94C91337CF682979298A2947
:101DE0009B290E94E51330CF0E94C913C501B4019D
:101DF0000E94AD1329CF8695112311F08C2F81708D
:101E0000882309F421CF2D2F229526952770220FA4
:101E1000220F6D2F6F70862E912CB12CA12C022ECB
:101E200004C0880C991CAA1CBB1C0A94D2F760E061
:101E300070E0CB01D4FF0FC06FE070E080E090E075
:101E400004C0660F771F881F991F2A95D2F76095E7
:101E5000709580959095C695C695C370C23051F027
:101E600080F4682979298A299B29C13071F00E9460
:101E7000A314EACE682979298A299B290E94BF14D4
:101E8000E3CE0E94A314C501B4010E948714DCCEE6
:101E9000E0E2ED0FE53108F04DC0F0E0E05FFB4D12
:101EA0000C949C23DF708C2F8F71112321F00E94E2
:101EB00020148D2F09CF0E9441148D2F13CF112391
:101EC00041F0053008F0C0CE8C2F8F710E9466144F
:101ED000BBCE063008F0B8CEF7CF8C2F8F71112310
:101EE00039F00E942014B0CE8C2F8F711123C9F3CA
:101EF0000E944114A9CE112329F08C2F8F710E94CA
:101F00000B14A2CE0E9401149FCE112349F0CF7171
:101F10008C2F0E94201463E08C2F0E94AA1594CE6F
:101F200081E00E94B315023008F48ECE82E00E9458
:101F3000B3158ACE112329F001116ECE8C2F8F712B
:101F4000D0CF0111E2CE8C2F8F71D2CF4C2F4F709A
:101F50006D2FC7010E9444060E942A1375CE4C2F94
:101F60004F706D2FC7010E94A8076ECEDF91CF91F1
:101F70001F910F91FF90EF90DF90BF90AF909F90D7
:101F80008F9008950F931F93CF93DF93EC018B8174
:101F90009C81892B29F08881998189238F3F29F49D
:101FA000DF91CF911F910F910895CE010E94740689
:101FB0008823B1F3688179818A810E947C158C0124
:101FC0000E94DB140E94A213B801CE01DF91CF91D1
:101FD0001F910F910C94C40D0E946C160E947C16E8
:101FE0000E9441160E9495160E94621B0E94B61A1A
:101FF00090E080E00E94710B90E080E00C94870BF1
:102000000E945C160C94EC0F0E947215E92FE29569
:10201000EF70E250EE3070F4F0E0EB5DFB4D0C94AD
:102020009C23803F19F020F4803E20F481E0089545
:10203000843FE1F380E00895803EC0F3813FD1F713
:10204000F5CF93FB882780F90895CF93DF9300D0D5
:1020500000D00F92CDB7DEB70F900F900F900F907A
:102060000F90DF91CF910895CF93DF9300D000D0F0
:1020700000D0CDB7DEB726960FB6F894DEBF0FBE00
:10208000CDBFDF91CF9108951F93CF93DF93C09180
:10209000770116E0809178018C1304C0DF91CF9115
:1020A0001F910895D0E01C9FF0011D9FF00D112499
:1020B000E758FE4F4081518162817381848195810F
:1020C0000E9434102196C770E5CF4091A90150912C
:1020D000AA016091AB017091AC018091AD0190912A
:1020E000AE010C9434101F93CF93DF938091AE0117
:1020F000807FC1F48091AB018823A1F080917701AA
:10210000C09178016091A9017091AA014091AC0140
:102110005091AD01D62FD723DA01A095B09516E0E6
:10212000C81304C0DF91CF911F91089590E041152D
:10213000510511F0DF3F31F401968770F1CF2A0F7E
:102140003B1F17C0189FF001199FF00D1124E7588D
:10215000FE4F21812713F0CF20812613EDCF22815E
:102160002111EACF238134812417350740F3241B42
:10217000350B283C310500F72091AE012F7020610E
:102180002093AE0126E0289FF001299FF00D112435
:10219000E258FE4F80818F708061808389EA91E0F0
:1021A0000E94C20FDF91CF911F910C944410BF92F7
:1021B000CF92DF92EF92FF920F931F93CF93DF9313
:1021C000CDB7DEB761970FB6F894DEBF0FBECDBFB7
:1021D0008C0185E0F801DE011D9601900D928A9533
:1021E000E1F7D8014C9111965C9111971296EC9001
:1021F00012978091AC019091AD01009709F47FC1D5
:102200002091A9013091AA01622F63236F3F09F445
:1022100076C11396CD90DC90B090AB01BB2009F451
:1022200013C1C816D906D0F1F601E81BF90BCF018E
:10223000FF24F394883C910508F0F12C8091AE01C5
:10224000982F907FFF2009F4B6C091117FC0FE2C1B
:10225000351329C0241327C0E11025C08F70806179
:102260008093AE010E94651089EA91E00E94C20F3E
:102270008091AE01D80115968C938F2D61960FB683
:10228000F894DEBF0FBECDBFDF91CF911F910F91AC
:10229000FF90EF90DF90CF90BF900895809590953C
:1022A0008C0D9D1DC5CFCD2829F0852F84238F3F10
:1022B00009F033C180E0B82FB170DB2E80FF3CC045
:1022C000809177012091780136E0821315C04D8707
:1022D0005E878D859E850E947215292F22952F700D
:1022E0002230F0F0243018F59F70F1F0F80195815C
:1022F000907FD1F4D12C1EC090E0389FF001399F1F
:10230000F00D1124E758FE4F6181651306C060810E
:10231000641303C06281E6120FC001968770D5CFA7
:102320009F7011F0882331F3805E883018F3C80164
:102330000E94C20FFD2CA1CFEE2009F49ECF809108
:10234000AE0181608093AE01F12C97CF351306C0AA
:10235000241304C0D801EE2009F49CC04D875E8789
:102360008D859E850E940410882309F4D2C0EE203A
:1023700009F4CFC08091AE01803270F02091A901A4
:102380003091AA0138872F831986DB86CA868C870D
:10239000CE0107960E94C20F86E0F801A9EAB1E0DB
:1023A00001900D928A95E1F70E9473100E946510CA
:1023B000FF24F39462CF911115C07C2DD98AC88A6D
:1023C0006E2D89890E94251089EA91E00E94C20F32
:1023D00086E0E9EAF1E0DF011D928A95E9F70E94C3
:1023E00065104BCF351312C0241310C0E1100EC07E
:1023F000F8018583C8010E94C20FE9EAF1E086E096
:10240000DF011D928A95E9F7FB2C37CF4D875E8758
:102410008D859E850E940410882309F47AC0EE20E1
:1024200009F477C08091AE01803208F4B5CF2091D5
:10243000A9013091AA013A8329831B82DD82CC82D3
:102440008E83CE010196A6CFC816D90688F1F60173
:10245000E81BF90BCF01F12C883C910508F047C02F
:10246000FE2CEE2009F455C0351330C024132EC0C5
:102470008091AE0180FD21C0982F907FF1F0D801AE
:1024800015968C931597903F39F0982F907F905F19
:102490008F70892B15968C93C8010E94C20F86E01D
:1024A000F801A9EAB1E001900D928A95E1F797CF82
:1024B000809590958C0D9D1DCECF86E0F801A9EA00
:1024C000B1E001900D928A95E1F7D7CE4D875E87F6
:1024D0008D859E850E94041081115ECF8091AE0192
:1024E00081608093AE01C8010E94C20FC6CE7C2DD0
:1024F000D98AC88A6E2D89890E94251069CFEE205D
:1025000041F04D875E878D859E850E940410811164
:1025100043CFC8010E94C20F4BCF81E08E25CBCEA6
:102520001F93CF93DF93CDB7DEB72C970FB6F894F8
:10253000DEBF0FBECDBF4F83588769877A878B87F1
:102540009C87CE0107960E94D710882369F08A8560
:102550009B85892B39F04F815885842F85238F3FA8
:1025600009F071C016E05FC086E0FE013796DE011B
:10257000119601900D928A95E1F78A859B85892BAA
:1025800089F38F81988589238F3F61F320917801AA
:1025900030E0C9010196877099274091770148176B
:1025A000190671F40E9400101092780110927701C0
:1025B00086E0E9EAF1E0DF011D928A95E9F7D2CFE2
:1025C00096E0929FD001939FB00D1124A758BE4F63
:1025D000FE01319601900D929A95E1F78093780172
:1025E0000E944410BFCF819FC001112487589E4F85
:1025F0000E94D7108823E9F0E09177011E9FF00137
:102600001124E758FE4F408151816281738184819A
:1026100095810E9434108091770190E00196877037
:1026200099278093770180917701909178018913A0
:10263000DACF2C960FB6F894DEBF0FBECDBFDF9178
:10264000CF911F91089569857A858B859C850E941D
:10265000341088CFEF92FF920F931F93CF93DF93A5
:102660008C01892B81F0F12CEE24E394E801219672
:10267000F8018491843770F4843008F05FC08130B1
:10268000B1F08230A1F1DF91CF911F910F91FF90B6
:10269000EF900895853709F44CC008F43DC09CE7DD
:1026A000980F903780F78F770E94670D49C00E5FB3
:1026B0001F4FFE01849190E2980F983060F487706C
:1026C000FE2D01C0FF0F8A95EAF78F2F0E946F162B
:1026D0000E94951602C00E948B0C8F2D815030F203
:1026E000EFE9FFE03197F1F700C00000F7CF0E5F90
:1026F0001F4FFE01849190E2980F983050F487703C
:10270000FE2D01C0FF0F8A95EAF78F2F0E947516E4
:10271000DFCF0E94670DE1CF0E5F1F4FFE01C49116
:10272000C150D8F28FE99FE00197F1F700C0000097
:10273000F7CF0E5F1F4FFE01F490CFCF0E948B0C9E
:102740008E01CBCF08956093E5017093E6018093ED
:10275000E7019093E8010C94EC0F0F931F93009105
:10276000E5011091E6012091E7013091E801DC01DB
:10277000CB01802B912BA22BB32B8093E50190935F
:10278000E601A093E701B093E8011F910F910C942B
:10279000EC0F0F931F930091E5011091E60120913A
:1027A000E7013091E801DC01CB0180239123A223D2
:1027B000B3238093E5019093E601A093E701B093E2
:1027C000E8011F910F910C94EC0F0F931F93009150
:1027D000E5011091E6012091E7013091E801DC016B
:1027E000CB0180279127A227B3278093E5019093FF
:1027F000E601A093E701B093E8011F910F910C94BB
:10280000EC0F1092E1011092E2011092E30110929C
:10281000E4010C94EC0F41E050E060E070E004C093
:10282000440F551F661F771F8A95D2F74093E10129
:102830005093E2016093E3017093E4010C94EC0F78
:1028400041E050E060E070E004C0440F551F661F97
:10285000771F8A95D2F78091E1019091E201A091D2
:10286000E301B091E401842B952BA62BB72B809329
:10287000E1019093E201A093E301B093E4010C9491
:10288000EC0F41E050E060E070E004C0440F551FE1
:10289000661F771F8A95D2F7409550956095709581
:1028A0008091E1019091E201A091E301B091E401F6
:1028B00084239523A623B7238093E1019093E2011B
:1028C000A093E301B093E4010C94EC0F41E050E0DD
:1028D00060E070E004C0440F551F661F771F8A95A3
:1028E000D2F78091E1019091E201A091E301B091D2
:1028F000E40184279527A627B7278093E1019093C9
:10290000E201A093E301B093E4010C94EC0F0F9368
:102910001F930091E1011091E2012091E3013091B8
:10292000E401DC01CB01802B912BA22BB32B8093F4
:10293000E1019093E201A093E301B093E4011F91C0
:102940000F910C94EC0F0F931F930091E1011091E4
:10295000E2012091E3013091E401DC01CB0180230D
:102960009123A223B3238093E1019093E201A093EA
:10297000E301B093E4011F910F910C94EC0F0F93BE
:102980001F930091E1011091E2012091E301309148
:10299000E401DC01CB0180279127A227B327809394
:1029A000E1019093E201A093E301B093E4011F9150
:1029B0000F910C94EC0F08952FE0929F800D11243D
:1029C000982F977041E001C0440F9A95EAF78695D9
:1029D0008695869595E0899FF0011124E155FE4F7B
:1029E00090E080E070E05191DF0111979B01082E8B
:1029F00002C0369527950A94E2F721702195252784
:102A0000242325272C9301968530910561F708959D
:102A10002FE0929F800D1124982F977086958695B0
:102A2000869525E0829FF0011124E155FE4F50E08C
:102A300040E080E0219130E0092E02C036952795D4
:102A40000A94E2F721703327042E01C0220F0A9462
:102A5000EAF7822B4F5F5F4F4530510559F70895D4
:102A6000BF92CF92DF92EF92FF920F931F93CF937B
:102A7000DF938C01C090E101D090E201E090E3018E
:102A8000F090E4018091E5019091E601A091E701C9
:102A9000B091E801C82AD92AEA2AFB2ACFE1D0E07E
:102AA000BC2ED701C6010C2E04C0B695A7959795EC
:102AB00087950A94D2F780FD0EC0219788F7B12C34
:102AC0008B2DDF91CF911F910F91FF90EF90DF90B1
:102AD000CF90BF900895B8018C2F0E94C507019731
:102AE00061F3EECFCF93DF93EC010E943015BE016E
:102AF000DF91CF910C94C5071F93CF93DF93EB0128
:102B000090917601992331F0CB01DF91CF911F9104
:102B10000C947215882379F0CB010E943015182F80
:102B2000682FCE010E94DC14BE01812FDF91CF916E
:102B30001F910C94C507CB010E940815182FF4CFE4
:102B40008091E90185958595859508958091E901A4
:102B50008770089598E0899F90011124622B6093FB
:102B6000E9010C9420149091E901809589238093C8
:102B7000E901282F277061F4282F082E000C330B51
:102B80009217130629F08595859585950C94411427
:102B900008959091E901977081E009F480E008952B
:102BA000909112019923E1F090913F0297FF18C094
:102BB000E82FE695E695E695EF3139F12091000191
:102BC00030910101E20FF32FF11D877021E030E019
:102BD00001C0220F8A95EAF78181822B81830895B3
:102BE0002091000130910101F90132969FEF40E000
:102BF0005191851751F09F3F19F4511101C0942F45
:102C00004F5F4E31A9F79F3F09F40895290F311DF9
:102C100097FD3A95F90182830895909112019923C5
:102C2000F1F090913F0297FF1AC0E82FE695E695E4
:102C3000E695EF3129F12091000130910101E20F79
:102C4000F32FF11D282F277081E090E001C0880F3D
:102C50002A95EAF7809591818923818308952091AF
:102C6000000130910101F9013296205E3F4F9191B0
:102C7000891303C0DF0111971C92E217F307B9F71C
:102C8000089581E090E0E0910001F0910101E80FEA
:102C9000F91F1082019680329105A9F7089590914D
:102CA0000D02892B80930D020895809590910D025D
:102CB000982390930D02089510920D02089590911B
:102CC0000C02892B80930C020895809590910C0240
:102CD000982390930C02089510920C0208959091FD
:102CE0000B02892B80930B020895809590910B0223
:102CF000982390930B02089510920B0208958093ED
:102D0000EA0108951092EA0108952091000130919E
:102D10000101F9013196205E3F4F80E091919111C0
:102D20008F5FE217F307D1F70895E0910001F0916A
:102D3000010180910D028083E0910001F091010179
:102D4000808190910C02892B8083E0910001F091A9
:102D50000101808190910B02892B80839091EA017F
:102D6000992361F0E0910001F09101018081892BAC
:102D700080830E94851681111092EA0180910001E2
:102D8000909101010C945B0B6DEE7EEF90E080E082
:102D90000E94D62360E082E090E00E94C42360E0BD
:102DA00083E090E00E94C42360E084E090E00E9411
:102DB000C42360E085E090E00C94C42390E080E0C0
:102DC0000E94BE2321E08D3E9E4F09F020E0822F1D
:102DD000089582E090E00C94B623682F82E090E0A2
:102DE0000C94C42383E090E00C94B623682F83E016
:102DF00090E00C94C42384E090E00C94B623682FF8
:102E000084E090E00C94C42380914502843039F131
:102E100010920F0288E190E020E40FB6F894A89594
:102E2000809360000FBE2093600080E00E94A607A0
:102E300083B7817F846083BF83B7816083BF7894C9
:102E4000889583B78E7F83BF0FB6F894A89580913D
:102E50006000886180936000109260000FBE08954A
:102E600008950895CF930E9430170E94730A0E941C
:102E70003117C0E08C2F0E94400B892B31F4CF5FBB
:102E8000C530C1F780E0CF91089581E0FCCF0E946A
:102E900000100E944F0B0C94A6071F921FB61F92A2
:102EA00011248F939F93AF93BF9380910F02811151
:102EB00013C080913B0290913C02A0913D02B091E1
:102EC0003E024196A11DB11D80933B0290933C02AE
:102ED000A0933D02B0933E02BF91AF919F918F911D
:102EE0001F901FBE1F90189582E084BD93E095BD92
:102EF0009AEF97BD80936E0008952FB7F894809154
:102F00003B0290913C02A0913D02B0913E022FBF46
:102F10000895CF92DF92EF92FF920F931F932FB7F6
:102F2000F89440913B0250913C0260913D027091B7
:102F30003E022FBF6A017B01EE24FF248C0130E0AA
:102F400020E0C016D106E206F30650F0481B590BEC
:102F5000CA011F910F91FF90EF90DF90CF900895DD
:102F600041505109F3CF1F921FB61F9211248F9326
:102F70009F93AF93BF9380913B0290913C02A091AD
:102F80003D02B0913E020196A11DB11D80933B020E
:102F900090933C02A0933D02B0933E02BF91AF914B
:102FA0009F918F911F901FBE1F9018950E945E1FCA
:102FB000F8942FEF87EA91E6215080409040E1F7A6
:102FC00000C0000087E090EBDC0180934E029093FC
:102FD0004F02A0935002B093510288E19CE00FB6DB
:102FE000F894A895809360000FBE90936000FFCF87
:102FF000AF92BF92CF92DF92EF92FF920F931F9307
:10300000CF93C0E0CC24C394D12CE82EF12C8C2F8C
:103010000E94400B5C0110E000E0C601002E02C0DF
:10302000880F991F0A94E2F78A219B21892B99F432
:103030000F5F1F4F0F30110581F7CF5FC53039F794
:1030400080E0CF911F910F91FF90EF90DF90CF9094
:10305000BF90AF900895602F7C2F80E00E94A90759
:10306000E816F90629F781E0ECCFCF93C82F8CE260
:103070000E94F817882321F08C2FCF910C94F81719
:1030800080E0CF910895CF930E94DE16811102C097
:103090000E94C416C5E608C00E94730A8FE39CE92B
:1030A0000197F1F700C00000C150B1F789E20E941A
:1030B00035188111EFC08AE20E94351881110E94F3
:1030C000C41685E00E94351881110E94D6170E940F
:1030D000E91680930E0287E00E943518882371F06C
:1030E0008BE10E943518882309F4B1C090910E023B
:1030F000892F8D7F91FF826080930E0280910E0256
:103100000E94ED160E94FB1690E09093400280937F
:103110003F0280EE0E943518882341F090913F02D3
:10312000892F8E7F90FF816080933F0289E30E9408
:103130003518882341F090913F02892F8D7F91FFB0
:10314000826080933F0282EE0E943518882341F00E
:1031500090913F02892F8B7F92FF846080933F0282
:1031600086EE0E943518882341F090913F02892F06
:10317000877F93FF886080933F0283EE0E9435181B
:10318000882341F090913F02892F8F7E94FF8061C8
:1031900080933F0285E30E943518882341F0909187
:1031A0003F02892F8F7D95FF806280933F0281E3EC
:1031B0000E943518882341F090913F02892F8F7B20
:1031C00096FF806480933F0281E10E943518882336
:1031D00041F090913F02892F97FB87F980588093A7
:1031E0003F0280913F020E94FF1687E20E9435183D
:1031F000C82F8EE10E9435188111C2608FE10E94B4
:1032000035188111C46080E20E9435188111C860B0
:1032100081E20E9435188111C06182E20E94351856
:103220008111C06283E20E9435188111C06484E27A
:103230000E943518882341F1C0688C2F0E94F61631
:103240006C2F70E090E080E0CF910C94A3138EE09F
:103250000E943518882339F090910E02892F8B7FB8
:1032600092FF846049CF80E10E94351890910E0250
:10327000882329F0892F877F93FF88603DCF892F8E
:103280008E7F90FF816038CFC111D7CF0E94F21698
:10329000682FD7CFCF9108958091120280FF12C07E
:1032A0006091050185E0689FB001112475956795CF
:1032B0007595679560387105A8F561157105A1F1DF
:1032C000862F089581FF09C06091050185E0689F00
:1032D000B001112475956795EDCF6091050182FDD0
:1032E0000AC0809113028823D1F09091040160916B
:1032F0000501891728F085E0689FB0011124DACF15
:10330000869FB001112485E0869F9001879F300D34
:103310001124692F70E0C9010E948823CBCF65E09A
:1033200070E0CECF8FE7089581E00895809112027A
:1033300080FF0CC06091030170E0759567957595ED
:1033400067956115710549F1862F089581FF06C0C3
:103350006091030170E075956795F3CF609103016B
:1033600082FD0BC0909113029923A1F0609102019C
:1033700080910301961738F0682F70E0603871056E
:1033800000F38FE70895899FC001112470E00E9427
:103390008823F4CF61E070E0D7CF81E00895803FCB
:1033A00031F40E944C198195809316020895813F53
:1033B00019F40E944C19F8CF823F31F40E944C1945
:1033C0008195809315020895833F19F40E944C194A
:1033D000F8CF893F29F40E94961980931702089527
:1033E0008A3F21F40E9496198195F7CF8B3F31F4E3
:1033F0000E94961981958093180208958C3F19F4C4
:103400000E949619F8CF843F31F4809114028160B4
:10341000809314020895853F21F480911402826004
:10342000F7CF863F21F4809114028460F1CF873F6B
:1034300021F4809114028860EBCF883F21F48091C1
:1034400014028061E5CF8D3F31F4809112028160DA
:103450008093120208958E3F21F4809112028260BF
:10346000F7CF8F3FB9F7809112028460F1CF90912E
:103470001502803F41F48091160287FD10921602DA
:10348000992371F00895813F29F48091160218164E
:10349000ACF3F6CF823F81F497FFF2CF1092150282
:1034A0008091160290911702892B90911802892B16
:1034B00049F7109213020895833F19F4191674F313
:1034C000DFCF893F39F4809117021816CCF610929D
:1034D0001702D6CF8A3F29F48091170287FFD0CFF9
:1034E000F6CF8B3F39F48091180287FFC9CF109235
:1034F0001802C6CF8C3F29F4809118021816BCF32D
:10350000BFCF843F31F4809114028E7F80931402E8
:10351000B7CF853F21F4809114028D7FF7CF863F8E
:1035200021F4809114028B7FF1CF873F21F48091A9
:103530001402877FEBCF883F21F4809114028F7EA5
:10354000E5CF8D3F31F4809112028E7F809312027D
:1035500097CF8E3F21F4809112028D7FF7CF8F3F5E
:1035600009F08ECF809112028B7FF0CF84E192E040
:103570000E94660B0E947D179093110280931002A7
:1035800008951F93CF93DF938091100290911102C1
:103590000E948917AC01909113022091060130E03E
:1035A000911106C0209107018AE0289F9001112403
:1035B0004217530778F020911502C0911602D0915E
:1035C000170210911802211109C08C2F8D2B812B0D
:1035D00009F074C0DF91CF911F9108959F3F19F0BA
:1035E0009F5F90931302121624F40E944C1980934B
:1035F00015028091150287FF05C00E944C19819524
:10360000809315021C1624F40E944C198093160214
:103610008091160287FF05C00E944C198195809306
:10362000160260911502662331F1C0911602CC2377
:1036300011F1062E000C770B880B990B0E948F223C
:1036400023E333E343E35FE30E94F3220E94572224
:10365000609315026C2FCC0F770B880B990B0E948F
:103660008F2223E333E343E35FE30E94F3220E94CC
:103670005722609316021D1624F40E949619809317
:1036800017028091170287FF05C00E949619819545
:1036900080931702111624F40E9496198093180241
:1036A0008091180287FF05C00E949619819580932A
:1036B0001802DF91CF911F910C94B61A9F3F09F029
:1036C0008FCFA0CF85E0E4E1F2E0DF011D928A9583
:1036D000E9F71092130210921202089580913902B4
:1036E0000895CF93DF9300D00F92CDB7DEB79C0142
:1036F00080914502843019F593E099833B832A83B6
:103700009093E9008FEF9091E800815095FD06C0FD
:1037100095ED9A95F1F700008111F5CF8091E800C1
:1037200085FF0DC050E040E063E070E0CE010196FF
:103730000E94CE1D8091E8008E778093E8000F9064
:103740000F900F90DF91CF910895CF93DF9300D02A
:103750000F92CDB7DEB720914502243031F522E03B
:103760002983805891099B838A8383E08093E900B1
:103770008FEF9091E800815095FD06C095ED9A95E8
:10378000F1F700008111F5CF8091E80085FF0DC0B1
:1037900050E040E063E070E0CE0101960E94CE1D53
:1037A0008091E8008E778093E8000F900F900F9043
:1037B000DF91CF9108959C01809145028430F9F406
:1037C00082E08093E9009FEF8091E800915085FDB1
:1037D00006C085ED8A95F1F700009111F5CF809133
:1037E000E80085FF0CC050E040E065E070E0C901F2
:1037F0000E94CE1D8091E8008E778093E8000895A6
:10380000CF93DF93EC01809145028430F1F49091E5
:1038100012019923E9F090913F0297FF19C080931C
:10382000E9008FEF9091E800815095FD06C095E189
:103830009A95F1F700008111F5CF8091E80050E0F2
:1038400040E060E270E085FD1AC0DF91CF910895FD
:1038500081E08093E9008FEF9091E800815095FD21
:1038600006C095ED9A95F1F700008111F5CF809192
:10387000E80085FFEACF50E040E068E070E0CE016C
:103880000E94CE1D8091E8008E778093E80080E250
:10389000FE01A9E1B2E001900D928A95E1F7D5CF42
:1038A00080914402811109C00E945E1F0E94BB1FCB
:1038B0008091E20084608093E200089510924402B7
:1038C0000895089508950C94471742E061EC81E053
:1038D0000E94DA1E42E061EC82E00E94DA1E42E0C1
:1038E00061EC83E00E94DA1E42E261EC84E00C9419
:1038F000DA1E80914702833009F455C030F48130DC
:1039000071F1823009F491C008958A3009F47DC0C4
:103910008B3009F463C0893009F044C080914602BD
:10392000813209F03FC080914A0290914B0200978A
:1039300011F00397B9F58091E800877F8093E80044
:103940008091E80082FF2AC08091F10080933902C3
:103950008091E8008B778093E8000C940E1F809193
:103960004602813AF9F48091E800877F8093E8006D
:1039700080914A0290914B02892B61F460E289E1C7
:1039800092E070E00E941D1E8091E8008B7780938A
:10399000E800089560E090E080E0F3CF8091450278
:1039A0008111CECF089580914602813AD9F7809156
:1039B0004A0290914B02892BA9F78091E800877FFA
:1039C0008093E8008091E80080FFFCCF8091120195
:1039D0008093F1008091E8008E77BDCF8091460200
:1039E000813201F780914A0290914B02892BD1F6E6
:1039F0008091E800877F8093E8000E940E1F8091ED
:103A00004802809312010C9400108091460281328A
:103A100049F68091E800877F8093E8000E940E1F9E
:103A20008091490280933A02089580914602813A3A
:103A300009F0B8CF8091E800877F8093E8008091FB
:103A4000E80080FFFCCF80913A02C2CF84B7877F25
:103A500084BF0FB6F894A895809160008861809328
:103A60006000109260000FBE80E8809361001092A9
:103A700061000E949E0B0E945E1F0E94BB1F8091EE
:103A8000E20084608093E20078940E943C220E94CD
:103A9000A00B88E091E00E944A0B8091450285309E
:103AA00019F00E94AC0BF9CF0E94041780914302D9
:103AB000882399F30E943217882379F30E94B81D56
:103AC000ECCF292F33272330310521F168F4213041
:103AD000310509F443C02230310509F444C090E0B7
:103AE00080E030E020E026C02132310551F1223261
:103AF0003105A9F7643098F770E0FB01EE0FFF1F66
:103B0000E55DFE4F20813181695D7E4FFB01808143
:103B100090E010C099278130910581F0009729F03D
:103B20000297E9F6ECE0FAE002C0E6E7FAE08491F9
:103B300090E09F01FA01318320830895E8E3FAE0E1
:103B4000F6CF643060F6E62FF0E0EE0FFF1FED5C7D
:103B5000FE4F2081318189E090E0ECCF82E190E05E
:103B600027EE3AE0E7CF8DE690E02AE73AE0E2CFB1
:103B700080E189BD82E189BD09B400FEFDCF80915D
:103B8000D8008F7D8093D8008091E0008260809380
:103B9000E0008091E00081FDFCCF0895AF92BF92DC
:103BA000CF92DF92FF920F931F93CF93DF936C011D
:103BB000EB018A010E942D1FF82E811123C00115EF
:103BC000110539F0F80180819181C81BD90BC80E0D
:103BD000D91EB12CA12C2097A9F08091E80085FD79
:103BE00022C08091E8008E778093E80001151105CE
:103BF000A1F0F80180819181A80EB91EB182A08246
:103C000085E0F82E8F2DDF91CF911F910F91FF90BE
:103C1000DF90CF90BF90AF9008950E942D1F882312
:103C2000D1F2F82EEFCFF60181916F018093F10070
:103C30002197FFEFAF1ABF0ACECFFC0180914C0253
:103C400090914D0286179707A0F06115710529F430
:103C50009091E8009E779093E80090E061157105DF
:103C600051F4911108C08091E80082FF34C080E0D7
:103C70000895BC01F2CF809145028823C1F18530BF
:103C8000C1F18091E80083FD30C08091E80082FDA1
:103C9000EACF8091E80080FFE1CF8091F30020918E
:103CA000F200382F6115710519F02830310558F0F0
:103CB00091E02830310509F090E02091E8002E775E
:103CC0002093E800CBCF81918093F100615071097E
:103CD0002F5F3F4FE7CF80914502882341F0853029
:103CE00041F08091E80083FFBECF81E0089582E03B
:103CF000089583E00895FC0180914C0290914D025B
:103D000086179707A0F06115710529F48091E800E6
:103D10008E778093E80090E06115710551F4911160
:103D200008C08091E80082FF35C080E00895BC01A2
:103D3000F2CF809145028823C9F18530C9F1809185
:103D4000E80083FD31C08091E80082FDEACF8091D8
:103D5000E80080FFE1CF8091F3002091F200382F3E
:103D60006115710519F02830310558F091E02830BF
:103D7000310509F090E08091E8008E778093E800AB
:103D8000CBCF84918093F1003196615071092F5F00
:103D90003F4FE6CF80914502882341F0853041F0C6
:103DA0008091E80083FFBDCF81E0089582E008950F
:103DB00083E00895982F973028F08F708093E90062
:103DC00081E008959093E900242F762F50E0981712
:103DD00031F07091EC002091ED005091F00021FD48
:103DE00002C09F5FE8CF3091EB003E7F3093EB0045
:103DF0003091ED003D7F3093ED003091EB0031606C
:103E00003093EB007093EC002093ED005093F000A2
:103E10002091EE0027FDE5CF80E0089580914602D5
:103E200087FF13C08091E80082FF06C08091E80000
:103E30008B778093E80004C0809145028111F2CF16
:103E40000895809145028823D9F38091E80080FF8E
:103E5000F8CF8091E8008E77ECCF2091E40030918C
:103E6000E50095E6A9012091EC00822F817020FFEA
:103E700006C08091E80080FF06C080E00895209190
:103E8000E80022FD1AC080914502882389F0853020
:103E900089F08091EB0085FD0FC02091E400309106
:103EA000E50042175307F9F29150E1F684E00895D6
:103EB00082E0089583E0089581E008950E94CC1F78
:103EC0000E94D41FE0EEF0E0808181608083E8ED05
:103ED000F0E080818F77808319BCA7EDB0E08C91F2
:103EE0008E7F8C9380818F7E808310924402089510
:103EF0000F931F93CF93DF930E94CC1F0E94D41F78
:103F0000C8EDD0E088818F77888388818068888336
:103F100088818F7D888319BC1092450210924102DE
:103F2000109243021092420200EE10E0F8018081EC
:103F30008B7F808388818160888342E060E080E0BD
:103F40000E94DA1EE1EEF0E080818E7F8083E2EE57
:103F5000F0E0808181608083808188608083F801C7
:103F600080818E7F8083888180618883DF91CF917B
:103F70001F910F910895E8EDF0E080818F7E80839E
:103F8000E7EDF0E080818160808384E082BF81E0A2
:103F9000809344020C94781FE8EDF0E080818E7FDE
:103FA00080831092E20008951092DA001092E100EE
:103FB00008951F920F920FB60F9211242F933F93E3
:103FC0004F935F936F937F938F939F93AF93BF9321
:103FD000EF93FF938091E10082FF0BC08091E2009C
:103FE00082FF07C08091E1008B7F8093E1000E94F7
:103FF0003B228091DA0080FF19C08091D80080FFB9
:1040000015C08091DA008E7F8093DA008091D9000C
:1040100080FF96C080E189BD82E189BD09B400FEC0
:10402000FDCF81E0809345020E94501C8091E10009
:1040300080FF19C08091E20080FF15C08091E200EE
:104040008E7F8093E2008091E20080618093E200A5
:104050008091D80080628093D80019BC85E080935D
:1040600045020E94621C8091E10084FF2BC0809178
:10407000E20084FF27C080E189BD82E189BD89B566
:10408000982F917080FFFBCF8091D8008F7D809317
:10409000D8008091E1008F7E8093E1008091E20062
:1040A0008F7E8093E2008091E20081608093E20045
:1040B00080914102882309F449C084E0809345023D
:1040C0000E94631C8091E10083FF29C08091E2007F
:1040D00083FF25C08091E100877F8093E10082E02B
:1040E00080934502109241028091E1008E7F80937F
:1040F000E1008091E2008E7F8093E2008091E200F7
:1041000080618093E20042E060E080E00E94DA1E7D
:104110008091F00088608093F0000E94611CFF9104
:10412000EF91BF91AF919F918F917F916F915F912F
:104130004F913F912F910F900FBE0F901F901895A8
:1041400019BC109245020E945E1C70CF8091E30062
:1041500087FD93E090934502B3CF1F920F920FB665
:104160000F9211242F933F934F935F936F937F93FD
:104170008F939F93AF93BF93CF93DF93EF93FF936F
:10418000D091E900DF708091EC00C82FC17080FDF4
:10419000C0E81092E9008091F000877F8093F000E2
:1041A00078940E94F1201092E9008091F0008860DC
:1041B0008093F000CD2BCF70C093E900FF91EF9179
:1041C000DF91CF91BF91AF919F918F917F916F912F
:1041D0005F914F913F912F910F900FBE0F901F90C5
:1041E00018951F93CF93DF93CDB7DEB7AA970FB67D
:1041F000F894DEBF0FBECDBF86E492E02091F100BF
:10420000FC012193CF01F2E08E349F07B9F70E94A1
:10421000791C8091E80083FF16C18091460290913D
:1042200047029A3008F00FC1E92FF0E0ED5CFB4D3A
:104230000C949C23803881F0823809F004C180916D
:104240004A028F708093E9008091EB0085FB8827FC
:1042500080F91092E90006C08091420290914302D9
:10426000911182609091E800977F9093E80080938D
:10427000F1001092F1008091E8008E77E0C0882371
:1042800009F4CEC0823009F0DEC08091480281116D
:10429000D1C080914A028F7009F4D5C08093E900A3
:1042A0002091EB0020FFC6C0933031F48091EB00E9
:1042B00080628093EB00BEC09091EB009061909380
:1042C000EB0021E030E001C0220F8A95EAF720934D
:1042D000EA001092EA008091EB008860EACF811139
:1042E000B2C0109148021F778091E3008078812B43
:1042F0008093E3008091E800877F8093E8000E942C
:104300000E1F8091E80080FFFCCF8091E300806861
:104310008093E30082E0111183E08093450293C013
:104320008058823008F08FC08091480290914902F5
:104330008C3D23E09207A1F583E08A838AE289839A
:104340004FB7F894DE01139620E03EE051E2E32FF0
:10435000F0E050935700E49120FF03C0E295EF7026
:104360003F5FEF708E2F90E0EA30C0F0C7968D93DC
:104370009D932F5F243159F74FBF8091E800877FCD
:104380008093E8006AE270E0CE0101960E941D1E53
:104390008091E8008B778093E80055C0C096E7CF06
:1043A000AE014F5F5F4F60914A020E94611DBC01E8
:1043B000892B09F448C09091E800977F9093E8001A
:1043C00089819A810E947B1EE3CF8038E1F580913C
:1043D000E800877F8093E800809141028093F1009C
:1043E0004ACF811130C090914802923060F580919F
:1043F000E800877F8093E800909341020E940E1F9F
:1044000080914102882311F084E005C08091E3008F
:1044100087FDFACF81E0809345020E94651C13C09E
:1044200080914802813079F481E0933009F080E096
:10443000809343021092E9008091E800877F809387
:10444000E8000E940E1F8091E80083FF0AC080915F
:10445000E800877F8093E8008091EB008062809382
:10446000EB00AA960FB6F894DEBF0FBECDBFDF916A
:10447000CF911F9108950895CF938091450288238D
:10448000A1F0C091E900CF709091EC00892F81706C
:1044900090FD80E8C82B1092E9008091E80083FD30
:1044A0000E94F120CF70C093E900CF9108950E943F
:1044B0005E226894B1110C94ED2208950E94D222DC
:1044C00088F09F5798F0B92F9927B751B0F0E1F0D5
:1044D000660F771F881F991F1AF0BA95C9F714C085
:1044E000B13091F00E94EC22B1E008950C94EC22DE
:1044F000672F782F8827B85F39F0B93FCCF38695BE
:1045000077956795B395D9F73EF49095809570951A
:1045100061957F4F8F4F9F4F0895E89409C097FB97
:104520003EF490958095709561957F4F8F4F9F4F8A
:104530009923A9F0F92F96E9BB279395F6958795CE
:1045400077956795B795F111F8CFFAF4BB0F11F491
:1045500060FF1BC06F5F7F4F8F4F9F4F16C0882338
:1045600011F096E911C0772321F09EE8872F762F6E
:1045700005C0662371F096E8862F70E060E02AF0AF
:104580009A95660F771F881FDAF7880F969587959B
:1045900097F9089557FD9058440F551F59F05F3F04
:1045A00071F04795880F97FB991F61F09F3F79F055
:1045B00087950895121613061406551FF2CF4695D7
:1045C000F1DF08C0161617061806991FF1CF869559
:1045D0007105610508940895E894BB27662777273D
:1045E000CB0197F908950E9406230C9477230E942B
:1045F000692338F00E94702320F0952311F00C9469
:1046000060230C94662311240C94ED220E94CA228C
:1046100070F3959FC1F3950F50E0551F629FF00115
:10462000729FBB27F00DB11D639FAA27F00DB11D2E
:10463000AA1F649F6627B00DA11D661F829F2227B7
:10464000B00DA11D621F739FB00DA11D621F839F3E
:10465000A00D611D221F749F3327A00D611D231F14
:10466000849F600D211D822F762F6A2F11249F5762
:1046700050409AF0F1F088234AF0EE0FFF1FBB1F65
:10468000661F771F881F91505040A9F79E3F510524
:1046900080F00C9460230C94ED225F3FE4F3983E8D
:1046A000D4F3869577956795B795F795E7959F5FCE
:1046B000C1F7FE2B880F911D9695879597F9089560
:1046C00097F99F6780E870E060E008959FEF80ECC5
:1046D000089500240A941616170618060906089568
:1046E00000240A9412161306140605060895092ECE
:1046F0000394000C11F4882352F0BB0F40F4BF2B3D
:1047000011F460FF04C06F5F7F4F8F4F9F4F08957C
:1047100097FB072E16F4009407D077FD09D00E946E
:10472000A22307FC05D03EF4909581959F4F0895F4
:10473000709561957F4F0895EE0FFF1F0590F491DE
:10474000E02D0994AA1BBB1B51E107C0AA1FBB1F88
:10475000A617B70710F0A61BB70B881F991F5A950D
:10476000A9F780959095BC01CD010895F999FECFE8
:1047700092BD81BDF89A992780B50895A8E1B0E06F
:1047800042E050E00C94DE23262FF999FECF92BD33
:1047900081BDF89A019700B4021639F01FBA20BD06
:1047A0000FB6F894FA9AF99A0FBE08950196272F3A
:1047B0000E94C5230C94C423DC01CB01FC01F999B0
:1047C000FECF06C0F2BDE1BDF89A319600B40D925D
:1047D00041505040B8F70895F894FFCF11071D07D6
:1047E0002107250729072D073107350739073D0719
:1047F0004107450749074D075107550759075D0709
:10480000F70DF70D470E470E890EA50E240E240E48
:10481000B00E240E480F480FA60F240E240EAF0F23
:10482000520F520F520F520F520F520F520F520F80
:10483000520F520F520F520F520F520F520F520F70
:104840005F0F6D0F740F7B0F850F111011101A1071
:104850001A101C101A101A101A1011101110211011
:104860001A101A1021101A213F2123223F2123223E
:0A4870006F2190212322E521F121A0
:10487A00EB012808140A321E6E1B001CDB1BA51B49
:10488A00711B0130313233F790919293959437F638
:10489A00F5F43435366667404D3639B50B680B3258
:0C48AA000BF90A8C0AA50ABE0AD70A0006
:00000001FF
